{
  "_format": "hh-sol-artifact-1",
  "contractName": "Snake3",
  "sourceName": "contracts/Snake3.sol",
  "abi": [
    {
      "inputs": [],
      "stateMutability": "nonpayable",
      "type": "constructor"
    },
    {
      "inputs": [],
      "name": "ApprovalCallerNotOwnerNorApproved",
      "type": "error"
    },
    {
      "inputs": [],
      "name": "ApprovalQueryForNonexistentToken",
      "type": "error"
    },
    {
      "inputs": [],
      "name": "ApprovalToCurrentOwner",
      "type": "error"
    },
    {
      "inputs": [],
      "name": "ApproveToCaller",
      "type": "error"
    },
    {
      "inputs": [],
      "name": "BalanceQueryForZeroAddress",
      "type": "error"
    },
    {
      "inputs": [],
      "name": "MintToZeroAddress",
      "type": "error"
    },
    {
      "inputs": [],
      "name": "MintZeroQuantity",
      "type": "error"
    },
    {
      "inputs": [
        {
          "internalType": "address",
          "name": "operator",
          "type": "address"
        }
      ],
      "name": "OperatorNotAllowed",
      "type": "error"
    },
    {
      "inputs": [],
      "name": "OwnerQueryForNonexistentToken",
      "type": "error"
    },
    {
      "inputs": [],
      "name": "TransferCallerNotOwnerNorApproved",
      "type": "error"
    },
    {
      "inputs": [],
      "name": "TransferFromIncorrectOwner",
      "type": "error"
    },
    {
      "inputs": [],
      "name": "TransferToNonERC721ReceiverImplementer",
      "type": "error"
    },
    {
      "inputs": [],
      "name": "TransferToZeroAddress",
      "type": "error"
    },
    {
      "inputs": [],
      "name": "URIQueryForNonexistentToken",
      "type": "error"
    },
    {
      "anonymous": false,
      "inputs": [
        {
          "indexed": true,
          "internalType": "address",
          "name": "owner",
          "type": "address"
        },
        {
          "indexed": true,
          "internalType": "address",
          "name": "approved",
          "type": "address"
        },
        {
          "indexed": true,
          "internalType": "uint256",
          "name": "tokenId",
          "type": "uint256"
        }
      ],
      "name": "Approval",
      "type": "event"
    },
    {
      "anonymous": false,
      "inputs": [
        {
          "indexed": true,
          "internalType": "address",
          "name": "owner",
          "type": "address"
        },
        {
          "indexed": true,
          "internalType": "address",
          "name": "operator",
          "type": "address"
        },
        {
          "indexed": false,
          "internalType": "bool",
          "name": "approved",
          "type": "bool"
        }
      ],
      "name": "ApprovalForAll",
      "type": "event"
    },
    {
      "anonymous": false,
      "inputs": [
        {
          "indexed": false,
          "internalType": "string",
          "name": "prevURI",
          "type": "string"
        },
        {
          "indexed": false,
          "internalType": "string",
          "name": "newURI",
          "type": "string"
        }
      ],
      "name": "ContractURIUpdated",
      "type": "event"
    },
    {
      "anonymous": false,
      "inputs": [
        {
          "indexed": true,
          "internalType": "address",
          "name": "newRoyaltyRecipient",
          "type": "address"
        },
        {
          "indexed": false,
          "internalType": "uint256",
          "name": "newRoyaltyBps",
          "type": "uint256"
        }
      ],
      "name": "DefaultRoyalty",
      "type": "event"
    },
    {
      "anonymous": false,
      "inputs": [
        {
          "indexed": false,
          "internalType": "bool",
          "name": "restriction",
          "type": "bool"
        }
      ],
      "name": "OperatorRestriction",
      "type": "event"
    },
    {
      "anonymous": false,
      "inputs": [
        {
          "indexed": true,
          "internalType": "address",
          "name": "prevOwner",
          "type": "address"
        },
        {
          "indexed": true,
          "internalType": "address",
          "name": "newOwner",
          "type": "address"
        }
      ],
      "name": "OwnerUpdated",
      "type": "event"
    },
    {
      "anonymous": false,
      "inputs": [
        {
          "indexed": true,
          "internalType": "uint256",
          "name": "tokenId",
          "type": "uint256"
        },
        {
          "indexed": true,
          "internalType": "address",
          "name": "royaltyRecipient",
          "type": "address"
        },
        {
          "indexed": false,
          "internalType": "uint256",
          "name": "royaltyBps",
          "type": "uint256"
        }
      ],
      "name": "RoyaltyForToken",
      "type": "event"
    },
    {
      "anonymous": false,
      "inputs": [
        {
          "indexed": true,
          "internalType": "address",
          "name": "from",
          "type": "address"
        },
        {
          "indexed": true,
          "internalType": "address",
          "name": "to",
          "type": "address"
        },
        {
          "indexed": true,
          "internalType": "uint256",
          "name": "tokenId",
          "type": "uint256"
        }
      ],
      "name": "Transfer",
      "type": "event"
    },
    {
      "inputs": [],
      "name": "OPERATOR_FILTER_REGISTRY",
      "outputs": [
        {
          "internalType": "contract IOperatorFilterRegistry",
          "name": "",
          "type": "address"
        }
      ],
      "stateMutability": "view",
      "type": "function"
    },
    {
      "inputs": [
        {
          "internalType": "address",
          "name": "_ticketOwner",
          "type": "address"
        },
        {
          "internalType": "bytes[]",
          "name": "_snakeData",
          "type": "bytes[]"
        },
        {
          "internalType": "bytes",
          "name": "_snakeColors",
          "type": "bytes"
        },
        {
          "internalType": "bytes",
          "name": "_imageURI",
          "type": "bytes"
        }
      ],
      "name": "addSnakeTicket",
      "outputs": [],
      "stateMutability": "nonpayable",
      "type": "function"
    },
    {
      "inputs": [
        {
          "internalType": "address",
          "name": "operator",
          "type": "address"
        },
        {
          "internalType": "uint256",
          "name": "tokenId",
          "type": "uint256"
        }
      ],
      "name": "approve",
      "outputs": [],
      "stateMutability": "nonpayable",
      "type": "function"
    },
    {
      "inputs": [
        {
          "internalType": "address",
          "name": "owner",
          "type": "address"
        }
      ],
      "name": "balanceOf",
      "outputs": [
        {
          "internalType": "uint256",
          "name": "",
          "type": "uint256"
        }
      ],
      "stateMutability": "view",
      "type": "function"
    },
    {
      "inputs": [
        {
          "internalType": "address",
          "name": "_to",
          "type": "address"
        },
        {
          "internalType": "uint256",
          "name": "_quantity",
          "type": "uint256"
        },
        {
          "internalType": "string",
          "name": "_baseURI",
          "type": "string"
        },
        {
          "internalType": "bytes",
          "name": "_data",
          "type": "bytes"
        }
      ],
      "name": "batchMintTo",
      "outputs": [],
      "stateMutability": "nonpayable",
      "type": "function"
    },
    {
      "inputs": [
        {
          "internalType": "uint256",
          "name": "_tokenId",
          "type": "uint256"
        }
      ],
      "name": "burn",
      "outputs": [],
      "stateMutability": "nonpayable",
      "type": "function"
    },
    {
      "inputs": [
        {
          "internalType": "uint256",
          "name": "_snakeTicketID",
          "type": "uint256"
        }
      ],
      "name": "burnTicket",
      "outputs": [],
      "stateMutability": "nonpayable",
      "type": "function"
    },
    {
      "inputs": [],
      "name": "contractURI",
      "outputs": [
        {
          "internalType": "string",
          "name": "",
          "type": "string"
        }
      ],
      "stateMutability": "view",
      "type": "function"
    },
    {
      "inputs": [
        {
          "internalType": "uint256",
          "name": "tokenId",
          "type": "uint256"
        }
      ],
      "name": "getApproved",
      "outputs": [
        {
          "internalType": "address",
          "name": "",
          "type": "address"
        }
      ],
      "stateMutability": "view",
      "type": "function"
    },
    {
      "inputs": [],
      "name": "getBaseURICount",
      "outputs": [
        {
          "internalType": "uint256",
          "name": "",
          "type": "uint256"
        }
      ],
      "stateMutability": "view",
      "type": "function"
    },
    {
      "inputs": [
        {
          "internalType": "uint256",
          "name": "_index",
          "type": "uint256"
        }
      ],
      "name": "getBatchIdAtIndex",
      "outputs": [
        {
          "internalType": "uint256",
          "name": "",
          "type": "uint256"
        }
      ],
      "stateMutability": "view",
      "type": "function"
    },
    {
      "inputs": [],
      "name": "getDefaultRoyaltyInfo",
      "outputs": [
        {
          "internalType": "address",
          "name": "",
          "type": "address"
        },
        {
          "internalType": "uint16",
          "name": "",
          "type": "uint16"
        }
      ],
      "stateMutability": "view",
      "type": "function"
    },
    {
      "inputs": [
        {
          "internalType": "uint256",
          "name": "_tokenId",
          "type": "uint256"
        }
      ],
      "name": "getRoyaltyInfoForToken",
      "outputs": [
        {
          "internalType": "address",
          "name": "",
          "type": "address"
        },
        {
          "internalType": "uint16",
          "name": "",
          "type": "uint16"
        }
      ],
      "stateMutability": "view",
      "type": "function"
    },
    {
      "inputs": [
        {
          "internalType": "uint256",
          "name": "_snakeTicketID",
          "type": "uint256"
        }
      ],
      "name": "getTicketSnakeData",
      "outputs": [
        {
          "internalType": "bytes[]",
          "name": "",
          "type": "bytes[]"
        }
      ],
      "stateMutability": "view",
      "type": "function"
    },
    {
      "inputs": [
        {
          "internalType": "address",
          "name": "_ticketsOwner",
          "type": "address"
        },
        {
          "internalType": "bool",
          "name": "_mintMap",
          "type": "bool"
        }
      ],
      "name": "getTicketsByAddress",
      "outputs": [
        {
          "internalType": "uint256[]",
          "name": "",
          "type": "uint256[]"
        }
      ],
      "stateMutability": "view",
      "type": "function"
    },
    {
      "inputs": [],
      "name": "getTotalContentChunks",
      "outputs": [
        {
          "internalType": "uint256",
          "name": "",
          "type": "uint256"
        }
      ],
      "stateMutability": "view",
      "type": "function"
    },
    {
      "inputs": [
        {
          "internalType": "address",
          "name": "owner",
          "type": "address"
        },
        {
          "internalType": "address",
          "name": "operator",
          "type": "address"
        }
      ],
      "name": "isApprovedForAll",
      "outputs": [
        {
          "internalType": "bool",
          "name": "",
          "type": "bool"
        }
      ],
      "stateMutability": "view",
      "type": "function"
    },
    {
      "inputs": [
        {
          "internalType": "address",
          "name": "_operator",
          "type": "address"
        },
        {
          "internalType": "uint256",
          "name": "_tokenId",
          "type": "uint256"
        }
      ],
      "name": "isApprovedOrOwner",
      "outputs": [
        {
          "internalType": "bool",
          "name": "isApprovedOrOwnerOf",
          "type": "bool"
        }
      ],
      "stateMutability": "view",
      "type": "function"
    },
    {
      "inputs": [
        {
          "internalType": "uint256",
          "name": "_snakeTicketID",
          "type": "uint256"
        }
      ],
      "name": "mintSnake",
      "outputs": [],
      "stateMutability": "payable",
      "type": "function"
    },
    {
      "inputs": [
        {
          "internalType": "address",
          "name": "_to",
          "type": "address"
        },
        {
          "internalType": "string",
          "name": "_tokenURI",
          "type": "string"
        }
      ],
      "name": "mintTo",
      "outputs": [],
      "stateMutability": "nonpayable",
      "type": "function"
    },
    {
      "inputs": [
        {
          "internalType": "bytes[]",
          "name": "data",
          "type": "bytes[]"
        }
      ],
      "name": "multicall",
      "outputs": [
        {
          "internalType": "bytes[]",
          "name": "results",
          "type": "bytes[]"
        }
      ],
      "stateMutability": "nonpayable",
      "type": "function"
    },
    {
      "inputs": [],
      "name": "name",
      "outputs": [
        {
          "internalType": "string",
          "name": "",
          "type": "string"
        }
      ],
      "stateMutability": "view",
      "type": "function"
    },
    {
      "inputs": [],
      "name": "nextTokenIdToMint",
      "outputs": [
        {
          "internalType": "uint256",
          "name": "",
          "type": "uint256"
        }
      ],
      "stateMutability": "view",
      "type": "function"
    },
    {
      "inputs": [],
      "name": "operatorRestriction",
      "outputs": [
        {
          "internalType": "bool",
          "name": "",
          "type": "bool"
        }
      ],
      "stateMutability": "view",
      "type": "function"
    },
    {
      "inputs": [],
      "name": "owner",
      "outputs": [
        {
          "internalType": "address",
          "name": "",
          "type": "address"
        }
      ],
      "stateMutability": "view",
      "type": "function"
    },
    {
      "inputs": [
        {
          "internalType": "uint256",
          "name": "tokenId",
          "type": "uint256"
        }
      ],
      "name": "ownerOf",
      "outputs": [
        {
          "internalType": "address",
          "name": "",
          "type": "address"
        }
      ],
      "stateMutability": "view",
      "type": "function"
    },
    {
      "inputs": [
        {
          "internalType": "uint256",
          "name": "tokenId",
          "type": "uint256"
        },
        {
          "internalType": "uint256",
          "name": "salePrice",
          "type": "uint256"
        }
      ],
      "name": "royaltyInfo",
      "outputs": [
        {
          "internalType": "address",
          "name": "receiver",
          "type": "address"
        },
        {
          "internalType": "uint256",
          "name": "royaltyAmount",
          "type": "uint256"
        }
      ],
      "stateMutability": "view",
      "type": "function"
    },
    {
      "inputs": [
        {
          "internalType": "address",
          "name": "from",
          "type": "address"
        },
        {
          "internalType": "address",
          "name": "to",
          "type": "address"
        },
        {
          "internalType": "uint256",
          "name": "tokenId",
          "type": "uint256"
        }
      ],
      "name": "safeTransferFrom",
      "outputs": [],
      "stateMutability": "nonpayable",
      "type": "function"
    },
    {
      "inputs": [
        {
          "internalType": "address",
          "name": "from",
          "type": "address"
        },
        {
          "internalType": "address",
          "name": "to",
          "type": "address"
        },
        {
          "internalType": "uint256",
          "name": "tokenId",
          "type": "uint256"
        },
        {
          "internalType": "bytes",
          "name": "data",
          "type": "bytes"
        }
      ],
      "name": "safeTransferFrom",
      "outputs": [],
      "stateMutability": "nonpayable",
      "type": "function"
    },
    {
      "inputs": [
        {
          "internalType": "address",
          "name": "operator",
          "type": "address"
        },
        {
          "internalType": "bool",
          "name": "approved",
          "type": "bool"
        }
      ],
      "name": "setApprovalForAll",
      "outputs": [],
      "stateMutability": "nonpayable",
      "type": "function"
    },
    {
      "inputs": [
        {
          "internalType": "string",
          "name": "_uri",
          "type": "string"
        }
      ],
      "name": "setContractURI",
      "outputs": [],
      "stateMutability": "nonpayable",
      "type": "function"
    },
    {
      "inputs": [
        {
          "internalType": "address",
          "name": "_royaltyRecipient",
          "type": "address"
        },
        {
          "internalType": "uint256",
          "name": "_royaltyBps",
          "type": "uint256"
        }
      ],
      "name": "setDefaultRoyaltyInfo",
      "outputs": [],
      "stateMutability": "nonpayable",
      "type": "function"
    },
    {
      "inputs": [
        {
          "internalType": "bool",
          "name": "_restriction",
          "type": "bool"
        }
      ],
      "name": "setOperatorRestriction",
      "outputs": [],
      "stateMutability": "nonpayable",
      "type": "function"
    },
    {
      "inputs": [
        {
          "internalType": "address",
          "name": "_newOwner",
          "type": "address"
        }
      ],
      "name": "setOwner",
      "outputs": [],
      "stateMutability": "nonpayable",
      "type": "function"
    },
    {
      "inputs": [
        {
          "internalType": "uint256",
          "name": "_tokenId",
          "type": "uint256"
        },
        {
          "internalType": "address",
          "name": "_recipient",
          "type": "address"
        },
        {
          "internalType": "uint256",
          "name": "_bps",
          "type": "uint256"
        }
      ],
      "name": "setRoyaltyInfoForToken",
      "outputs": [],
      "stateMutability": "nonpayable",
      "type": "function"
    },
    {
      "inputs": [
        {
          "internalType": "uint256",
          "name": "",
          "type": "uint256"
        }
      ],
      "name": "snakeTickets",
      "outputs": [
        {
          "internalType": "uint256",
          "name": "ticketID",
          "type": "uint256"
        },
        {
          "internalType": "address",
          "name": "creatorAddress",
          "type": "address"
        },
        {
          "internalType": "address",
          "name": "ownerAddress",
          "type": "address"
        },
        {
          "internalType": "uint256",
          "name": "creationTimestamp",
          "type": "uint256"
        },
        {
          "internalType": "bytes",
          "name": "snakeImageURI",
          "type": "bytes"
        },
        {
          "internalType": "bytes",
          "name": "snakeColors",
          "type": "bytes"
        },
        {
          "internalType": "bool",
          "name": "expired",
          "type": "bool"
        }
      ],
      "stateMutability": "view",
      "type": "function"
    },
    {
      "inputs": [
        {
          "internalType": "address",
          "name": "",
          "type": "address"
        },
        {
          "internalType": "bool",
          "name": "",
          "type": "bool"
        },
        {
          "internalType": "uint256",
          "name": "",
          "type": "uint256"
        }
      ],
      "name": "snakeTicketsByAddress",
      "outputs": [
        {
          "internalType": "uint256",
          "name": "",
          "type": "uint256"
        }
      ],
      "stateMutability": "view",
      "type": "function"
    },
    {
      "inputs": [
        {
          "internalType": "address",
          "name": "_subscription",
          "type": "address"
        }
      ],
      "name": "subscribeToRegistry",
      "outputs": [],
      "stateMutability": "nonpayable",
      "type": "function"
    },
    {
      "inputs": [
        {
          "internalType": "bytes4",
          "name": "interfaceId",
          "type": "bytes4"
        }
      ],
      "name": "supportsInterface",
      "outputs": [
        {
          "internalType": "bool",
          "name": "",
          "type": "bool"
        }
      ],
      "stateMutability": "view",
      "type": "function"
    },
    {
      "inputs": [],
      "name": "symbol",
      "outputs": [
        {
          "internalType": "string",
          "name": "",
          "type": "string"
        }
      ],
      "stateMutability": "view",
      "type": "function"
    },
    {
      "inputs": [
        {
          "internalType": "uint256",
          "name": "_tokenId",
          "type": "uint256"
        }
      ],
      "name": "tokenURI",
      "outputs": [
        {
          "internalType": "string",
          "name": "",
          "type": "string"
        }
      ],
      "stateMutability": "view",
      "type": "function"
    },
    {
      "inputs": [],
      "name": "totalSupply",
      "outputs": [
        {
          "internalType": "uint256",
          "name": "",
          "type": "uint256"
        }
      ],
      "stateMutability": "view",
      "type": "function"
    },
    {
      "inputs": [],
      "name": "totalTickets",
      "outputs": [
        {
          "internalType": "uint256",
          "name": "",
          "type": "uint256"
        }
      ],
      "stateMutability": "view",
      "type": "function"
    },
    {
      "inputs": [
        {
          "internalType": "address",
          "name": "from",
          "type": "address"
        },
        {
          "internalType": "address",
          "name": "to",
          "type": "address"
        },
        {
          "internalType": "uint256",
          "name": "tokenId",
          "type": "uint256"
        }
      ],
      "name": "transferFrom",
      "outputs": [],
      "stateMutability": "nonpayable",
      "type": "function"
    },
    {
      "inputs": [
        {
          "internalType": "bytes[]",
          "name": "_contentInChunks",
          "type": "bytes[]"
        }
      ],
      "name": "uploadContent",
      "outputs": [],
      "stateMutability": "nonpayable",
      "type": "function"
    }
  ],
  "bytecode": "0x60e060405260346080818152906200452d60a0396010906200002290826200040a565b503480156200003057600080fd5b503360405180604001604052806006815260200165534e414b453360d01b81525060405180604001604052806004815260200163534e4b3360e01b815250336000733cc6cdda760b79bafa08df41ecfa224f810dceb66001858581600290816200009b91906200040a565b506003620000aa82826200040a565b50506000805550620000bd8282620000f7565b50620000cb90508562000225565b620000e0826001600160801b03831662000277565b620000ec600162000322565b5050505050620004d6565b6daaeb6d7670e522a718067333cd4e3b1562000221576001600160a01b0382163b15620001da5780156200019957604051633e9f1edf60e11b81523060048201526001600160a01b03831660248201526daaeb6d7670e522a718067333cd4e90637d3e3dbe906044015b600060405180830381600087803b1580156200017c57600080fd5b505af115801562000191573d6000803e3d6000fd5b505050505050565b60405163a0af290360e01b81523060048201526001600160a01b03831660248201526daaeb6d7670e522a718067333cd4e9063a0af29039060440162000161565b604051632210724360e11b81523060048201526daaeb6d7670e522a718067333cd4e90634420e48690602401600060405180830381600087803b1580156200017c57600080fd5b5050565b600980546001600160a01b038381166001600160a01b0319831681179093556040519116919082907f8292fce18fa69edf4db7b94ea2e58241df0ae57f97e0a6c9b29067028bf92d7690600090a35050565b612710811115620002c05760405162461bcd60e51b815260206004820152600f60248201526e45786365656473206d61782062707360881b604482015260640160405180910390fd5b600a80546001600160a01b0384166001600160b01b03199091168117600160a01b61ffff851602179091556040518281527f90d7ec04bcb8978719414f82e52e4cb651db41d0e6f8cea6118c2191e6183adb9060200160405180910390a25050565b600e805460ff19168215159081179091556040519081527f38475885990d8dfe9ca01f0ef160a1b5514426eab9ddbc953a3353410ba780969060200160405180910390a150565b634e487b7160e01b600052604160045260246000fd5b600181811c908216806200039457607f821691505b602082108103620003b557634e487b7160e01b600052602260045260246000fd5b50919050565b601f8211156200040557600081815260208120601f850160051c81016020861015620003e45750805b601f850160051c820191505b818110156200019157828155600101620003f0565b505050565b81516001600160401b0381111562000426576200042662000369565b6200043e816200043784546200037f565b84620003bb565b602080601f8311600181146200047657600084156200045d5750858301515b600019600386901b1c1916600185901b17855562000191565b600085815260208120601f198616915b82811015620004a75788860151825594840194600190910190840162000486565b5085821015620004c65787850151600019600388901b60f8161c191681555b5050505050600190811b01905550565b61404780620004e66000396000f3fe6080604052600436106102715760003560e01c806351243a821161014f5780639bcf7a15116100c1578063c87b56dd1161007a578063c87b56dd146107c2578063d42d9971146107e2578063dd11247e146107f7578063e629aa851461080d578063e8a3d4851461083a578063e985e9c51461084f57600080fd5b80639bcf7a15146106f7578063a22cb46514610717578063a476b73d14610737578063ac9650d814610757578063b24f2d3914610777578063b88d4fde146107a257600080fd5b806370a082311161011357806370a08231146106445780637119876014610664578063754a81d9146106845780638da5cb5b146106a4578063938e3d7b146106c257806395d89b41146106e257600080fd5b806351243a82146105a257806357fd8455146105cf578063600dd5ea146105ef5780636352211e1461060f57806363b45e2d1461062f57600080fd5b80632a55205a116101e857806342966c68116101ac57806342966c68146104c6578063430c2081146104e657806344c438b01461050657806346666096146105265780634cc157df14610546578063504c6e011461058857600080fd5b80632a55205a1461041057806332f0cd641461044f5780633b1475a71461046f57806341f434341461048457806342842e0e146104a657600080fd5b8063095ea7b31161023a578063095ea7b31461033a57806313af40351461035a57806318160ddd1461037a5780631f5d616b1461039d57806323b872dd146103d05780632419f51b146103f057600080fd5b806275a3171461027657806301ffc9a714610298578063046ccd60146102cd57806306fdde03146102e0578063081812fc14610302575b600080fd5b34801561028257600080fd5b5061029661029136600461335b565b610898565b005b3480156102a457600080fd5b506102b86102b33660046133be565b61091c565b60405190151581526020015b60405180910390f35b6102966102db3660046133db565b610989565b3480156102ec57600080fd5b506102f5610b52565b6040516102c49190613444565b34801561030e57600080fd5b5061032261031d3660046133db565b610be4565b6040516001600160a01b0390911681526020016102c4565b34801561034657600080fd5b50610296610355366004613457565b610c28565b34801561036657600080fd5b50610296610375366004613481565b610c41565b34801561038657600080fd5b50600154600054035b6040519081526020016102c4565b3480156103a957600080fd5b506103bd6103b83660046133db565b610c71565b6040516102c4979695949392919061349c565b3480156103dc57600080fd5b506102966103eb3660046134fe565b610dce565b3480156103fc57600080fd5b5061038f61040b3660046133db565b610df9565b34801561041c57600080fd5b5061043061042b36600461353a565b610e67565b604080516001600160a01b0390931683526020830191909152016102c4565b34801561045b57600080fd5b5061029661046a36600461356a565b610ea4565b34801561047b57600080fd5b5060005461038f565b34801561049057600080fd5b506103226daaeb6d7670e522a718067333cd4e81565b3480156104b257600080fd5b506102966104c13660046134fe565b610f15565b3480156104d257600080fd5b506102966104e13660046133db565b610f65565b3480156104f257600080fd5b506102b8610501366004613457565b610f70565b34801561051257600080fd5b50610296610521366004613625565b610fef565b34801561053257600080fd5b506102966105413660046136bd565b6111b6565b34801561055257600080fd5b506105666105613660046133db565b611209565b604080516001600160a01b03909316835261ffff9091166020830152016102c4565b34801561059457600080fd5b50600e546102b89060ff1681565b3480156105ae57600080fd5b506105c26105bd3660046133db565b611274565b6040516102c491906136f1565b3480156105db57600080fd5b506102966105ea366004613481565b611363565b3480156105fb57600080fd5b5061029661060a366004613457565b6113d3565b34801561061b57600080fd5b5061032261062a3660046133db565b611401565b34801561063b57600080fd5b50600c5461038f565b34801561065057600080fd5b5061038f61065f366004613481565b611413565b34801561067057600080fd5b5061038f61067f366004613753565b611461565b34801561069057600080fd5b5061029661069f366004613792565b61149f565b3480156106b057600080fd5b506009546001600160a01b0316610322565b3480156106ce57600080fd5b506102966106dd3660046137d4565b61150d565b3480156106ee57600080fd5b506102f561153a565b34801561070357600080fd5b50610296610712366004613808565b611549565b34801561072357600080fd5b5061029661073236600461382d565b611578565b34801561074357600080fd5b506102966107523660046133db565b61158c565b34801561076357600080fd5b506105c2610772366004613864565b611658565b34801561078357600080fd5b50600a546001600160a01b03811690600160a01b900461ffff16610566565b3480156107ae57600080fd5b506102966107bd3660046138d8565b61174c565b3480156107ce57600080fd5b506102f56107dd3660046133db565b611779565b3480156107ee57600080fd5b5061038f611867565b34801561080357600080fd5b5061038f60135481565b34801561081957600080fd5b5061082d61082836600461382d565b611877565b6040516102c49190613933565b34801561084657600080fd5b506102f56118ee565b34801561085b57600080fd5b506102b861086a366004613977565b6001600160a01b03918216600090815260076020908152604080832093909416825291909152205460ff1690565b6108a061197c565b6108eb5760405162461bcd60e51b81526020600482015260176024820152762737ba1030baba3437b934bd32b2103a379036b4b73a1760491b60448201526064015b60405180910390fd5b6108fd6108f760005490565b826119a9565b61091882600160405180602001604052806000815250611a16565b5050565b60006301ffc9a760e01b6001600160e01b03198316148061094d57506380ac58cd60e01b6001600160e01b03198316145b806109685750635b5e139f60e01b6001600160e01b03198316145b8061098357506001600160e01b0319821663152a902d60e11b145b92915050565b346722b1c8c1227a000014806109a957506009546001600160a01b031633145b6109e45760405162461bcd60e51b815260206004820152600c60248201526b57726f6e672076616c75652160a01b60448201526064016108e2565b6000818152601460205260409020601354821115610a3c5760405162461bcd60e51b81526020600482015260156024820152745469636b657420646f65736e27742065786973742160581b60448201526064016108e2565b60028101546001600160a01b03163314610a985760405162461bcd60e51b815260206004820152601a60248201527f596f7520646f6e2774206f776e2074686973207469636b65742100000000000060448201526064016108e2565b600781015460ff1615610adf5760405162461bcd60e51b815260206004820152600f60248201526e5469636b657420657870697265642160881b60448201526064016108e2565b610aea336001611bb9565b610b0a6001600054610afc91906139c0565b610b0584611bd3565b6119a9565b60078101805460ff19166001179055610b2533836000611c51565b50336000908152601560209081526040808320600180855290835290832080549182018155835291200155565b606060028054610b61906139d3565b80601f0160208091040260200160405190810160405280929190818152602001828054610b8d906139d3565b8015610bda5780601f10610baf57610100808354040283529160200191610bda565b820191906000526020600020905b815481529060010190602001808311610bbd57829003601f168201915b5050505050905090565b6000610bef82611d2c565b610c0c576040516333d1c03960e21b815260040160405180910390fd5b506000908152600660205260409020546001600160a01b031690565b81610c3281611d57565b610c3c8383611e1b565b505050565b610c4961197c565b610c655760405162461bcd60e51b81526004016108e290613a0d565b610c6e81611e9c565b50565b6014602052600090815260409020805460018201546002830154600384015460048501805494956001600160a01b039485169593909416939192610cb4906139d3565b80601f0160208091040260200160405190810160405280929190818152602001828054610ce0906139d3565b8015610d2d5780601f10610d0257610100808354040283529160200191610d2d565b820191906000526020600020905b815481529060010190602001808311610d1057829003601f168201915b505050505090806005018054610d42906139d3565b80601f0160208091040260200160405190810160405280929190818152602001828054610d6e906139d3565b8015610dbb5780601f10610d9057610100808354040283529160200191610dbb565b820191906000526020600020905b815481529060010190602001808311610d9e57829003601f168201915b5050506007909301549192505060ff1687565b826001600160a01b0381163314610de857610de833611d57565b610df3848484611eee565b50505050565b6000610e04600c5490565b8210610e425760405162461bcd60e51b815260206004820152600d60248201526c092dcecc2d8d2c840d2dcc8caf609b1b60448201526064016108e2565b600c8281548110610e5557610e55613a35565b90600052602060002001549050919050565b600080600080610e7686611209565b90945084925061ffff169050612710610e8f8287613a4b565b610e999190613a78565b925050509250929050565b610eac61197c565b610f0c5760405162461bcd60e51b815260206004820152602b60248201527f4e6f7420617574686f72697a656420746f20736574206f70657261746f72207260448201526a32b9ba3934b1ba34b7b71760a91b60648201526084016108e2565b610c6e81611ef9565b610f20838383611f40565b6001600160a01b03821660009081526015602090815260408083206001808552908352908320805480830182559084529190922001829055610c3c9084908390611c51565b610c6e816001611f65565b600080610f7c83611401565b9050806001600160a01b0316846001600160a01b03161480610fc357506001600160a01b0380821660009081526007602090815260408083209388168352929052205460ff165b80610fe75750836001600160a01b0316610fdc84610be4565b6001600160a01b0316145b949350505050565b6009546001600160a01b031633146110375760405162461bcd60e51b815260206004820152600b60248201526a4f6e6c79206f776e65722160a81b60448201526064016108e2565b6001600160a01b0384166000908152601560209081526040808320838052909152902054600a1161109c5760405162461bcd60e51b815260206004820152600f60248201526e4d6178203130207469636b6574732160881b60448201526064016108e2565b601380549060006110ac83613a8c565b909155505060135460008181526014602052604090209081556001810180546001600160a01b0387166001600160a01b031991821681179092556002830180549091169091179055426003820155600481016111088382613aeb565b50600581016111178482613aeb565b5060005b8451811015611176578160060185828151811061113a5761113a613a35565b602090810291909101810151825460018101845560009384529190922001906111639082613aeb565b508061116e81613a8c565b91505061111b565b5050506001600160a01b03909216600090815260156020908152604080832083805282528220601354815460018101835591845291909220909101555050565b6009546001600160a01b031633146111fe5760405162461bcd60e51b815260206004820152600b60248201526a4f6e6c79204f776e65722160a81b60448201526064016108e2565b610c6e601182612118565b6000818152600b60209081526040808320815180830190925280546001600160a01b031680835260019091015492820192909252829115611250578051602082015161126a565b600a546001600160a01b03811690600160a01b900461ffff165b9250925050915091565b606060146000838152602001908152602001600020600601805480602002602001604051908101604052809291908181526020016000905b828210156113585783829060005260206000200180546112cb906139d3565b80601f01602080910402602001604051908101604052809291908181526020018280546112f7906139d3565b80156113445780601f1061131957610100808354040283529160200191611344565b820191906000526020600020905b81548152906001019060200180831161132757829003601f168201915b5050505050815260200190600101906112ac565b505050509050919050565b61136b61197c565b6113c85760405162461bcd60e51b815260206004820152602860248201527f4e6f7420617574686f72697a656420746f2073756273637269626520746f207260448201526732b3b4b9ba393c9760c11b60648201526084016108e2565b610c6e816001612178565b6113db61197c565b6113f75760405162461bcd60e51b81526004016108e290613a0d565b6109188282612286565b600061140c8261232c565b5192915050565b60006001600160a01b03821661143c576040516323d3ad8160e21b815260040160405180910390fd5b506001600160a01b03166000908152600560205260409020546001600160401b031690565b6015602052826000526040600020602052816000526040600020818154811061148957600080fd5b9060005260206000200160009250925050505481565b6114a761197c565b6114ed5760405162461bcd60e51b81526020600482015260176024820152762737ba1030baba3437b934bd32b2103a379036b4b73a1760491b60448201526064016108e2565b6115006114f960005490565b8484612446565b5050610df3848483611a16565b61151561197c565b6115315760405162461bcd60e51b81526004016108e290613a0d565b610c6e816124aa565b606060038054610b61906139d3565b61155161197c565b61156d5760405162461bcd60e51b81526004016108e290613a0d565b610c3c838383612586565b8161158281611d57565b610c3c838361264f565b600081815260146020526040902060028101546001600160a01b031633146115f65760405162461bcd60e51b815260206004820152601a60248201527f596f7520646f6e2774206f776e2074686973207469636b65742100000000000060448201526064016108e2565b600781015460ff161561163d5760405162461bcd60e51b815260206004820152600f60248201526e5469636b657420657870697265642160881b60448201526064016108e2565b60078101805460ff1916600117905561091833836000611c51565b6060816001600160401b03811115611672576116726132a6565b6040519080825280602002602001820160405280156116a557816020015b60608152602001906001900390816116905790505b50905060005b8281101561174557611715308585848181106116c9576116c9613a35565b90506020028101906116db9190613baa565b8080601f0160208091040260200160405190810160405280939291908181526020018383808284376000920191909152506126e492505050565b82828151811061172757611727613a35565b6020026020010181905250808061173d90613a8c565b9150506116ab565b5092915050565b836001600160a01b03811633146117665761176633611d57565b61177285858585612710565b5050505050565b6000818152600f6020526040812080546060929190611797906139d3565b80601f01602080910402602001604051908101604052809291908181526020018280546117c3906139d3565b80156118105780601f106117e557610100808354040283529160200191611810565b820191906000526020600020905b8154815290600101906020018083116117f357829003601f168201915b505050505090506000815111156118275792915050565b600061183284612754565b90508061183e856128f0565b60405160200161184f929190613bf7565b60405160208183030381529060405292505050919050565b600061187260115490565b905090565b6001600160a01b038216600090815260156020908152604080832084151584528252918290208054835181840281018401909452808452606093928301828280156118e157602002820191906000526020600020905b8154815260200190600101908083116118cd575b5050505050905092915050565b600880546118fb906139d3565b80601f0160208091040260200160405190810160405280929190818152602001828054611927906139d3565b80156119745780601f1061194957610100808354040283529160200191611974565b820191906000526020600020905b81548152906001019060200180831161195757829003601f168201915b505050505081565b60006119906009546001600160a01b031690565b6001600160a01b0316336001600160a01b031614905090565b6119b282611d2c565b6119fe5760405162461bcd60e51b815260206004820152601c60248201527f55524920736574206f66206e6f6e6578697374656e7420746f6b656e0000000060448201526064016108e2565b6000828152600f60205260409020610c3c8282613aeb565b6000546001600160a01b038416611a3f57604051622e076360e81b815260040160405180910390fd5b82600003611a605760405163b562e8dd60e01b815260040160405180910390fd5b6001600160a01b038416600081815260056020908152604080832080546fffffffffffffffffffffffffffffffff1981166001600160401b038083168b0181169182176801000000000000000067ffffffffffffffff1990941690921783900481168b01811690920217909155858452600490925290912080546001600160e01b0319168317600160a01b42909316929092029190911790558190818501903b15611b76575b60405182906001600160a01b03881690600090600080516020613ff2833981519152908290a4611b3f60008784806001019550876129f0565b611b5c576040516368d2bf6b60e11b815260040160405180910390fd5b808210611b06578260005414611b7157600080fd5b611ba9565b5b6040516001830192906001600160a01b03881690600090600080516020613ff2833981519152908290a4808210611b77575b506000908155610df39085838684565b610918828260405180602001604052806000815250611a16565b6060611c2b611be183612adb565b611bea84612b6d565b6000858152601460205260409020600501611c0486612bae565b604051602001611c179493929190613c99565b604051602081830303815290604052612c5f565b604051602001611c3b9190613dc4565b6040516020818303038152906040529050919050565b6001600160a01b038316600090815260156020908152604080832084151584529091528120905b81548110156117725783828281548110611c9457611c94613a35565b906000526020600020015403611d1a5781548290611cb4906001906139c0565b81548110611cc457611cc4613a35565b9060005260206000200154828281548110611ce157611ce1613a35565b906000526020600020018190555081805480611cff57611cff613e09565b60019003818190600052602060002001600090559055611772565b80611d2481613a8c565b915050611c78565b6000805482108015610983575050600090815260046020526040902054600160e01b900460ff161590565b600e5460ff1615610c6e576daaeb6d7670e522a718067333cd4e3b15610c6e57604051633185c44d60e21b81523060048201526001600160a01b03821660248201526daaeb6d7670e522a718067333cd4e9063c617113490604401602060405180830381865afa158015611dcf573d6000803e3d6000fd5b505050506040513d601f19601f82011682018060405250810190611df39190613e1f565b610c6e57604051633b79c77360e21b81526001600160a01b03821660048201526024016108e2565b6000611e2682611401565b9050806001600160a01b0316836001600160a01b031603611e5a5760405163250fdee360e21b815260040160405180910390fd5b336001600160a01b03821614611e9157611e74813361086a565b611e91576040516367d9dca160e11b815260040160405180910390fd5b610c3c838383612db1565b600980546001600160a01b038381166001600160a01b0319831681179093556040519116919082907f8292fce18fa69edf4db7b94ea2e58241df0ae57f97e0a6c9b29067028bf92d7690600090a35050565b610c3c838383612e0d565b600e805460ff19168215159081179091556040519081527f38475885990d8dfe9ca01f0ef160a1b5514426eab9ddbc953a3353410ba780969060200160405180910390a150565b826001600160a01b0381163314611f5a57611f5a33611d57565b610df3848484612fe6565b6000611f708361232c565b80519091508215611fd6576000336001600160a01b0383161480611f995750611f99823361086a565b80611fb4575033611fa986610be4565b6001600160a01b0316145b905080611fd457604051632ce44b5f60e11b815260040160405180910390fd5b505b611fe260008583612db1565b6001600160a01b0380821660008181526005602090815260408083208054600160801b6000196001600160401b0380841691909101811667ffffffffffffffff198416811783900482166001908101831690930277ffffffffffffffff0000000000000000ffffffffffffffff19909416179290921783558b86526004909452828520805460ff60e01b1942909316600160a01b026001600160e01b03199091169097179690961716600160e01b1785559189018084529220805491949091166120e05760005482146120e057805460208701516001600160401b0316600160a01b026001600160e01b03199091166001600160a01b038716171781555b5050604051869250600091506001600160a01b03841690600080516020613ff2833981519152908390a4505060018054810190555050565b60005b81518110156121725781818151811061213657612136613a35565b6020026020010151836001016000838152602001908152602001600020908161215f9190613aeb565b508061216a81613a8c565b91505061211b565b50519055565b6daaeb6d7670e522a718067333cd4e3b15610918576001600160a01b0382163b1561225557801561221557604051633e9f1edf60e11b81523060048201526001600160a01b03831660248201526daaeb6d7670e522a718067333cd4e90637d3e3dbe906044015b600060405180830381600087803b1580156121f957600080fd5b505af115801561220d573d6000803e3d6000fd5b505050505050565b60405163a0af290360e01b81523060048201526001600160a01b03831660248201526daaeb6d7670e522a718067333cd4e9063a0af2903906044016121df565b604051632210724360e11b81523060048201526daaeb6d7670e522a718067333cd4e90634420e486906024016121df565b6127108111156122ca5760405162461bcd60e51b815260206004820152600f60248201526e45786365656473206d61782062707360881b60448201526064016108e2565b600a80546001600160a01b0384166001600160b01b03199091168117600160a01b61ffff851602179091556040518281527f90d7ec04bcb8978719414f82e52e4cb651db41d0e6f8cea6118c2191e6183adb9060200160405180910390a25050565b60408051606081018252600080825260208201819052918101919091528160005481101561242d57600081815260046020908152604091829020825160608101845290546001600160a01b0381168252600160a01b81046001600160401b031692820192909252600160e01b90910460ff1615159181018290529061242b5780516001600160a01b0316156123c2579392505050565b5060001901600081815260046020908152604091829020825160608101845290546001600160a01b038116808352600160a01b82046001600160401b031693830193909352600160e01b900460ff1615159281019290925215612426579392505050565b6123c2565b505b604051636f96cda160e11b815260040160405180910390fd5b6000806124538486613e3c565b600c8054600181019091557fdf6966c971051c3d54ec59162606531493a51404a002842f56009d7e5cf4a8c7018190556000818152600d602052604090209092508291506124a18482613aeb565b50935093915050565b6000600880546124b9906139d3565b80601f01602080910402602001604051908101604052809291908181526020018280546124e5906139d3565b80156125325780601f1061250757610100808354040283529160200191612532565b820191906000526020600020905b81548152906001019060200180831161251557829003601f168201915b5050505050905081600890816125489190613aeb565b507fc9c7c3fe08b88b4df9d4d47ef47d2c43d55c025a0ba88ca442580ed9e7348a16818360405161257a929190613e4f565b60405180910390a15050565b6127108111156125ca5760405162461bcd60e51b815260206004820152600f60248201526e45786365656473206d61782062707360881b60448201526064016108e2565b6040805180820182526001600160a01b0384811680835260208084018681526000898152600b8352869020945185546001600160a01b031916941693909317845591516001909301929092559151838152909185917f7365cf4122f072a3365c20d54eff9b38d73c096c28e1892ec8f5b0e403a0f12d910160405180910390a3505050565b336001600160a01b038316036126785760405163b06307db60e01b815260040160405180910390fd5b3360008181526007602090815260408083206001600160a01b03871680855290835292819020805460ff191686151590811790915590519081529192917f17307eab39ab6107e8899845ad3d59bd9653f200f220920489ca2b5937696c31910160405180910390a35050565b60606127098383604051806060016040528060278152602001613fcb60279139613001565b9392505050565b61271b848484612e0d565b6001600160a01b0383163b15610df357612737848484846129f0565b610df3576040516368d2bf6b60e11b815260040160405180910390fd5b60606000612761600c5490565b90506000600c8054806020026020016040519081016040528092919081815260200182805480156127b157602002820191906000526020600020905b81548152602001906001019080831161279d575b5050505050905060005b828110156128b5578181815181106127d5576127d5613a35565b60200260200101518510156128a357600d60008383815181106127fa576127fa613a35565b60200260200101518152602001908152602001600020805461281b906139d3565b80601f0160208091040260200160405190810160405280929190818152602001828054612847906139d3565b80156128945780601f1061286957610100808354040283529160200191612894565b820191906000526020600020905b81548152906001019060200180831161287757829003601f168201915b50505050509350505050919050565b6128ae600182613e3c565b90506127bb565b5060405162461bcd60e51b815260206004820152600f60248201526e125b9d985b1a59081d1bdad95b9259608a1b60448201526064016108e2565b6060816000036129175750506040805180820190915260018152600360fc1b602082015290565b8160005b8115612941578061292b81613a8c565b915061293a9050600a83613a78565b915061291b565b6000816001600160401b0381111561295b5761295b6132a6565b6040519080825280601f01601f191660200182016040528015612985576020820181803683370190505b5090505b8415610fe75761299a6001836139c0565b91506129a7600a86613e7d565b6129b2906030613e3c565b60f81b8183815181106129c7576129c7613a35565b60200101906001600160f81b031916908160001a9053506129e9600a86613a78565b9450612989565b604051630a85bd0160e11b81526000906001600160a01b0385169063150b7a0290612a25903390899088908890600401613e91565b6020604051808303816000875af1925050508015612a60575060408051601f3d908101601f19168201909252612a5d91810190613ec4565b60015b612abe573d808015612a8e576040519150601f19603f3d011682016040523d82523d6000602084013e612a93565b606091505b508051600003612ab6576040516368d2bf6b60e11b815260040160405180910390fd5b805181602001fd5b6001600160e01b031916630a85bd0160e11b149050949350505050565b60606000612ae8836130de565b60010190506000816001600160401b03811115612b0757612b076132a6565b6040519080825280601f01601f191660200182016040528015612b31576020820181803683370190505b5090508181016020015b600019016f181899199a1a9b1b9c1cb0b131b232b360811b600a86061a8153600a8504945084612b3b57509392505050565b600081815260146020908152604091829020915160609291612b9791601091600485019101613ee1565b604051602081830303815290604052915050919050565b6000818152601460205260408120606091612bca6011826131b6565b905060015b601154811015612c45578160068401612be96001846139c0565b81548110612bf957612bf9613a35565b6000918252602090912001612c0f6011846131b6565b604051602001612c2193929190613ef6565b60405160208183030381529060405291508080612c3d90613a8c565b915050612bcf565b50612c4f81612c5f565b60405160200161184f9190613f30565b60608151600003612c7e57505060408051602081019091526000815290565b6000604051806060016040528060408152602001613f8b6040913990506000600384516002612cad9190613e3c565b612cb79190613a78565b612cc2906004613a4b565b6001600160401b03811115612cd957612cd96132a6565b6040519080825280601f01601f191660200182016040528015612d03576020820181803683370190505b509050600182016020820185865187015b80821015612d6f576003820191508151603f8160121c168501518453600184019350603f81600c1c168501518453600184019350603f8160061c168501518453600184019350603f8116850151845350600183019250612d14565b5050600386510660018114612d8b5760028114612d9e57612da6565b603d6001830353603d6002830353612da6565b603d60018303535b509195945050505050565b60008281526006602052604080822080546001600160a01b0319166001600160a01b0387811691821790925591518593918516917f8c5be1e5ebec7d5bd14f71427d1e84f3dd0314c0f7b2291e5b200ac8c7c3b92591a4505050565b6000612e188261232c565b9050836001600160a01b031681600001516001600160a01b031614612e4f5760405162a1148160e81b815260040160405180910390fd5b6000336001600160a01b0386161480612e6d5750612e6d853361086a565b80612e88575033612e7d84610be4565b6001600160a01b0316145b905080612ea857604051632ce44b5f60e11b815260040160405180910390fd5b6001600160a01b038416612ecf57604051633a954ecd60e21b815260040160405180910390fd5b612edb60008487612db1565b6001600160a01b038581166000908152600560209081526040808320805467ffffffffffffffff198082166001600160401b0392831660001901831617909255898616808652838620805493841693831660019081018416949094179055898652600490945282852080546001600160e01b031916909417600160a01b42909216919091021783558701808452922080549193909116612faf576000548214612faf57805460208601516001600160401b0316600160a01b026001600160e01b03199091166001600160a01b038a16171781555b50505082846001600160a01b0316866001600160a01b0316600080516020613ff283398151915260405160405180910390a4611772565b610c3c8383836040518060200160405280600081525061174c565b60606001600160a01b0384163b6130695760405162461bcd60e51b815260206004820152602660248201527f416464726573733a2064656c65676174652063616c6c20746f206e6f6e2d636f6044820152651b9d1c9858dd60d21b60648201526084016108e2565b600080856001600160a01b0316856040516130849190613f6e565b600060405180830381855af49150503d80600081146130bf576040519150601f19603f3d011682016040523d82523d6000602084013e6130c4565b606091505b50915091506130d4828286613251565b9695505050505050565b60008072184f03e93ff9f4daa797ed6e38ed64bf6a1f0160401b831061311d5772184f03e93ff9f4daa797ed6e38ed64bf6a1f0160401b830492506040015b6d04ee2d6d415b85acef81000000008310613149576d04ee2d6d415b85acef8100000000830492506020015b662386f26fc10000831061316757662386f26fc10000830492506010015b6305f5e100831061317f576305f5e100830492506008015b612710831061319357612710830492506004015b606483106131a5576064830492506002015b600a83106109835760010192915050565b600081815260018301602052604090208054606091906131d5906139d3565b80601f0160208091040260200160405190810160405280929190818152602001828054613201906139d3565b80156118e15780601f10613223576101008083540402835291602001916118e1565b820191906000526020600020905b815481529060010190602001808311613231575093979650505050505050565b60608315613260575081612709565b8251156132705782518084602001fd5b8160405162461bcd60e51b81526004016108e29190613444565b80356001600160a01b03811681146132a157600080fd5b919050565b634e487b7160e01b600052604160045260246000fd5b604051601f8201601f191681016001600160401b03811182821017156132e4576132e46132a6565b604052919050565b600082601f8301126132fd57600080fd5b81356001600160401b03811115613316576133166132a6565b613329601f8201601f19166020016132bc565b81815284602083860101111561333e57600080fd5b816020850160208301376000918101602001919091529392505050565b6000806040838503121561336e57600080fd5b6133778361328a565b915060208301356001600160401b0381111561339257600080fd5b61339e858286016132ec565b9150509250929050565b6001600160e01b031981168114610c6e57600080fd5b6000602082840312156133d057600080fd5b8135612709816133a8565b6000602082840312156133ed57600080fd5b5035919050565b60005b8381101561340f5781810151838201526020016133f7565b50506000910152565b600081518084526134308160208601602086016133f4565b601f01601f19169290920160200192915050565b6020815260006127096020830184613418565b6000806040838503121561346a57600080fd5b6134738361328a565b946020939093013593505050565b60006020828403121561349357600080fd5b6127098261328a565b8781526001600160a01b038781166020830152861660408201526060810185905260e0608082018190526000906134d590830186613418565b82810360a08401526134e78186613418565b91505082151560c083015298975050505050505050565b60008060006060848603121561351357600080fd5b61351c8461328a565b925061352a6020850161328a565b9150604084013590509250925092565b6000806040838503121561354d57600080fd5b50508035926020909101359150565b8015158114610c6e57600080fd5b60006020828403121561357c57600080fd5b81356127098161355c565b600082601f83011261359857600080fd5b813560206001600160401b03808311156135b4576135b46132a6565b8260051b6135c38382016132bc565b93845285810183019383810190888611156135dd57600080fd5b84880192505b85831015613619578235848111156135fb5760008081fd5b6136098a87838c01016132ec565b83525091840191908401906135e3565b98975050505050505050565b6000806000806080858703121561363b57600080fd5b6136448561328a565b935060208501356001600160401b038082111561366057600080fd5b61366c88838901613587565b9450604087013591508082111561368257600080fd5b61368e888389016132ec565b935060608701359150808211156136a457600080fd5b506136b1878288016132ec565b91505092959194509250565b6000602082840312156136cf57600080fd5b81356001600160401b038111156136e557600080fd5b610fe784828501613587565b6000602080830181845280855180835260408601915060408160051b870101925083870160005b8281101561374657603f19888603018452613734858351613418565b94509285019290850190600101613718565b5092979650505050505050565b60008060006060848603121561376857600080fd5b6137718461328a565b925060208401356137818161355c565b929592945050506040919091013590565b600080600080608085870312156137a857600080fd5b6137b18561328a565b93506020850135925060408501356001600160401b038082111561368257600080fd5b6000602082840312156137e657600080fd5b81356001600160401b038111156137fc57600080fd5b610fe7848285016132ec565b60008060006060848603121561381d57600080fd5b8335925061352a6020850161328a565b6000806040838503121561384057600080fd5b6138498361328a565b915060208301356138598161355c565b809150509250929050565b6000806020838503121561387757600080fd5b82356001600160401b038082111561388e57600080fd5b818501915085601f8301126138a257600080fd5b8135818111156138b157600080fd5b8660208260051b85010111156138c657600080fd5b60209290920196919550909350505050565b600080600080608085870312156138ee57600080fd5b6138f78561328a565b93506139056020860161328a565b92506040850135915060608501356001600160401b0381111561392757600080fd5b6136b1878288016132ec565b6020808252825182820181905260009190848201906040850190845b8181101561396b5783518352928401929184019160010161394f565b50909695505050505050565b6000806040838503121561398a57600080fd5b6139938361328a565b91506139a16020840161328a565b90509250929050565b634e487b7160e01b600052601160045260246000fd5b81810381811115610983576109836139aa565b600181811c908216806139e757607f821691505b602082108103613a0757634e487b7160e01b600052602260045260246000fd5b50919050565b6020808252600e908201526d139bdd08185d5d1a1bdc9a5e995960921b604082015260600190565b634e487b7160e01b600052603260045260246000fd5b8082028115828204841417610983576109836139aa565b634e487b7160e01b600052601260045260246000fd5b600082613a8757613a87613a62565b500490565b600060018201613a9e57613a9e6139aa565b5060010190565b601f821115610c3c57600081815260208120601f850160051c81016020861015613acc5750805b601f850160051c820191505b8181101561220d57828155600101613ad8565b81516001600160401b03811115613b0457613b046132a6565b613b1881613b1284546139d3565b84613aa5565b602080601f831160018114613b4d5760008415613b355750858301515b600019600386901b1c1916600185901b17855561220d565b600085815260208120601f198616915b82811015613b7c57888601518255948401946001909101908401613b5d565b5085821015613b9a5787850151600019600388901b60f8161c191681555b5050505050600190811b01905550565b6000808335601e19843603018112613bc157600080fd5b8301803591506001600160401b03821115613bdb57600080fd5b602001915036819003821315613bf057600080fd5b9250929050565b60008351613c098184602088016133f4565b835190830190613c1d8183602088016133f4565b01949350505050565b60008154613c33816139d3565b60018281168015613c4b5760018114613c6057613c8f565b60ff1984168752821515830287019450613c8f565b8560005260208060002060005b85811015613c865781548a820152908401908201613c6d565b50505082870194505b5050505092915050565b707b226e616d65223a2022534e414b45202360781b81528451600090613cc6816011850160208a016133f4565b7f222c20226465736372697074696f6e223a2022534e414b455f44455343524950601191840191820152702a24a7a71116101134b6b0b3b2911d101160791b60318201528551613d1d816042840160208a016133f4565b7f222c202261747472696275746573223a5b7b2274726169745f74797065223a22604292909101918201527021a7a627a9299116113b30b63ab2911d1160791b6062820152613d6f6073820186613c26565b90507f227d5d2c2022616e696d6174696f6e5f75726c223a202200000000000000000081528351613da78160178401602088016133f4565b61227d60f01b601792909101918201526019019695505050505050565b7f646174613a6170706c69636174696f6e2f6a736f6e3b6261736536342c000000815260008251613dfc81601d8501602087016133f4565b91909101601d0192915050565b634e487b7160e01b600052603160045260246000fd5b600060208284031215613e3157600080fd5b81516127098161355c565b80820180821115610983576109836139aa565b604081526000613e626040830185613418565b8281036020840152613e748185613418565b95945050505050565b600082613e8c57613e8c613a62565b500690565b6001600160a01b03858116825284166020820152604081018390526080606082018190526000906130d490830184613418565b600060208284031215613ed657600080fd5b8151612709816133a8565b6000610fe7613ef08386613c26565b84613c26565b60008451613f088184602089016133f4565b613f1481840186613c26565b90508351613f268183602088016133f4565b0195945050505050565b7519185d184e9d195e1d0bda1d1b5b0ed8985cd94d8d0b60521b815260008251613f618160168501602087016133f4565b9190910160160192915050565b60008251613f808184602087016133f4565b919091019291505056fe4142434445464748494a4b4c4d4e4f505152535455565758595a6162636465666768696a6b6c6d6e6f707172737475767778797a303132333435363738392b2f416464726573733a206c6f772d6c6576656c2064656c65676174652063616c6c206661696c6564ddf252ad1be2c89b69c2b068fc378daa952ba7f163c4a11628f55a4df523b3efa2646970667358221220a59a840b9f4d0bd733a8f5c32aefa276fc7ce6dd9c078c0d2eea3932bf241eef64736f6c6343000813003368747470733a2f2f62346237363162623037633739346538323736626531636238613839626338322e6970667363646e2e696f2f",
  "linkReferences": {},
  "deployedLinkReferences": {}
}